{
  "address": "0xce77cb76A79dfb3F9E9B010007fcf621DD2255b8",
  "abi": [
    {
      "inputs": [
        {
          "internalType": "uint256",
          "name": "_lockTime",
          "type": "uint256"
        },
        {
          "internalType": "address",
          "name": "dataFeedAddr",
          "type": "address"
        }
      ],
      "stateMutability": "nonpayable",
      "type": "constructor"
    },
    {
      "anonymous": false,
      "inputs": [
        {
          "indexed": false,
          "internalType": "uint256",
          "name": "",
          "type": "uint256"
        }
      ],
      "name": "FundWithdrawByOwner",
      "type": "event"
    },
    {
      "anonymous": false,
      "inputs": [
        {
          "indexed": false,
          "internalType": "address",
          "name": "",
          "type": "address"
        },
        {
          "indexed": false,
          "internalType": "uint256",
          "name": "",
          "type": "uint256"
        }
      ],
      "name": "ReFundByFunder",
      "type": "event"
    },
    {
      "inputs": [],
      "name": "dataFeed",
      "outputs": [
        {
          "internalType": "contract AggregatorV3Interface",
          "name": "",
          "type": "address"
        }
      ],
      "stateMutability": "view",
      "type": "function"
    },
    {
      "inputs": [],
      "name": "deploymentTimestamp",
      "outputs": [
        {
          "internalType": "uint256",
          "name": "",
          "type": "uint256"
        }
      ],
      "stateMutability": "view",
      "type": "function"
    },
    {
      "inputs": [],
      "name": "fund",
      "outputs": [],
      "stateMutability": "payable",
      "type": "function"
    },
    {
      "inputs": [
        {
          "internalType": "address",
          "name": "",
          "type": "address"
        }
      ],
      "name": "fundersToAmount",
      "outputs": [
        {
          "internalType": "uint256",
          "name": "",
          "type": "uint256"
        }
      ],
      "stateMutability": "view",
      "type": "function"
    },
    {
      "inputs": [],
      "name": "getChainlinkDataFeedLatestAnswer",
      "outputs": [
        {
          "internalType": "int256",
          "name": "",
          "type": "int256"
        }
      ],
      "stateMutability": "view",
      "type": "function"
    },
    {
      "inputs": [],
      "name": "getFund",
      "outputs": [],
      "stateMutability": "nonpayable",
      "type": "function"
    },
    {
      "inputs": [],
      "name": "getFundSuccess",
      "outputs": [
        {
          "internalType": "bool",
          "name": "",
          "type": "bool"
        }
      ],
      "stateMutability": "view",
      "type": "function"
    },
    {
      "inputs": [],
      "name": "lockTime",
      "outputs": [
        {
          "internalType": "uint256",
          "name": "",
          "type": "uint256"
        }
      ],
      "stateMutability": "view",
      "type": "function"
    },
    {
      "inputs": [],
      "name": "owner",
      "outputs": [
        {
          "internalType": "address",
          "name": "",
          "type": "address"
        }
      ],
      "stateMutability": "view",
      "type": "function"
    },
    {
      "inputs": [],
      "name": "reFund",
      "outputs": [],
      "stateMutability": "nonpayable",
      "type": "function"
    },
    {
      "inputs": [
        {
          "internalType": "address",
          "name": "_erc20Addr",
          "type": "address"
        }
      ],
      "name": "setErc20Addr",
      "outputs": [],
      "stateMutability": "nonpayable",
      "type": "function"
    },
    {
      "inputs": [
        {
          "internalType": "address",
          "name": "funder",
          "type": "address"
        },
        {
          "internalType": "uint256",
          "name": "amountToUpdate",
          "type": "uint256"
        }
      ],
      "name": "setFunderToAmount",
      "outputs": [],
      "stateMutability": "nonpayable",
      "type": "function"
    },
    {
      "inputs": [],
      "name": "success",
      "outputs": [
        {
          "internalType": "bool",
          "name": "",
          "type": "bool"
        }
      ],
      "stateMutability": "view",
      "type": "function"
    },
    {
      "inputs": [
        {
          "internalType": "address",
          "name": "newOwner",
          "type": "address"
        }
      ],
      "name": "transferOwnership",
      "outputs": [],
      "stateMutability": "nonpayable",
      "type": "function"
    }
  ],
  "transactionHash": "0x816284a7336677dbfe27ceac927d20f2e134728a20e2d739d13999cbfe174fac",
  "args": [
    180,
    "0x694AA1769357215DE4FAC081bf1f309aDC325306"
  ],
  "numDeployments": 2,
  "solcInputHash": "7691cbcbd61267ebb66371808f480f83",
  "bytecode": "0x60806040526000600560146101000a81548160ff02191690831515021790555034801561002b57600080fd5b506040516117a33803806117a3833981810160405281019061004d919061017c565b33600260006101000a81548173ffffffffffffffffffffffffffffffffffffffff021916908373ffffffffffffffffffffffffffffffffffffffff160217905550806000806101000a81548173ffffffffffffffffffffffffffffffffffffffff021916908373ffffffffffffffffffffffffffffffffffffffff160217905550426003819055508160048190555050506101bc565b600080fd5b6000819050919050565b6100fb816100e8565b811461010657600080fd5b50565b600081519050610118816100f2565b92915050565b600073ffffffffffffffffffffffffffffffffffffffff82169050919050565b60006101498261011e565b9050919050565b6101598161013e565b811461016457600080fd5b50565b60008151905061017681610150565b92915050565b60008060408385031215610193576101926100e3565b5b60006101a185828601610109565b92505060206101b285828601610167565b9150509250929050565b6115d8806101cb6000396000f3fe6080604052600436106100dd5760003560e01c80639f883a051161007f578063bfc12c0511610059578063bfc12c0514610257578063d39cf00614610282578063da4658e0146102ab578063f2fde38b146102d6576100dd565b80639f883a05146101e5578063b60d428814610222578063bea4dfb51461022c576100dd565b806313ffff01116100bb57806313ffff011461014f5780638da5cb5b146101785780638edd6eb6146101a35780639e42ff90146101ba576100dd565b80630b93381b146100e25780630d6680871461010d5780630ff0a4df14610138575b600080fd5b3480156100ee57600080fd5b506100f76102ff565b6040516101049190610ce4565b60405180910390f35b34801561011957600080fd5b50610122610312565b60405161012f9190610d18565b60405180910390f35b34801561014457600080fd5b5061014d610318565b005b34801561015b57600080fd5b5061017660048036038101906101719190610d96565b6105b1565b005b34801561018457600080fd5b5061018d610685565b60405161019a9190610dd2565b60405180910390f35b3480156101af57600080fd5b506101b86106ab565b005b3480156101c657600080fd5b506101cf61090e565b6040516101dc9190610e4c565b60405180910390f35b3480156101f157600080fd5b5061020c60048036038101906102079190610d96565b610932565b6040516102199190610d18565b60405180910390f35b61022a61094a565b005b34801561023857600080fd5b50610241610a35565b60405161024e9190610e80565b60405180910390f35b34801561026357600080fd5b5061026c610ad4565b6040516102799190610d18565b60405180910390f35b34801561028e57600080fd5b506102a960048036038101906102a49190610ec7565b610ada565b005b3480156102b757600080fd5b506102c0610bb2565b6040516102cd9190610ce4565b60405180910390f35b3480156102e257600080fd5b506102fd60048036038101906102f89190610d96565b610bc5565b005b600260149054906101000a900460ff1681565b60045481565b6004546003546103289190610f36565b4211610369576040517f08c379a000000000000000000000000000000000000000000000000000000000815260040161036090610fc7565b60405180910390fd5b683635c9adc5dea0000061037c47610c99565b106103bc576040517f08c379a00000000000000000000000000000000000000000000000000000000081526004016103b390611033565b60405180910390fd5b6000600160003373ffffffffffffffffffffffffffffffffffffffff1673ffffffffffffffffffffffffffffffffffffffff168152602001908152602001600020541161043e576040517f08c379a00000000000000000000000000000000000000000000000000000000081526004016104359061109f565b60405180910390fd5b600080600160003373ffffffffffffffffffffffffffffffffffffffff1673ffffffffffffffffffffffffffffffffffffffff1681526020019081526020016000205490503373ffffffffffffffffffffffffffffffffffffffff16816040516104a7906110f0565b60006040518083038185875af1925050503d80600081146104e4576040519150601f19603f3d011682016040523d82523d6000602084013e6104e9565b606091505b5050809250508161052f576040517f08c379a000000000000000000000000000000000000000000000000000000000815260040161052690611151565b60405180910390fd5b6000600160003373ffffffffffffffffffffffffffffffffffffffff1673ffffffffffffffffffffffffffffffffffffffff168152602001908152602001600020819055507f1c36f137a5c7f168f8aadd74861e663db95ecce92a1b31e0a47646cb1f75ccd933826040516105a5929190611171565b60405180910390a15050565b600260009054906101000a900473ffffffffffffffffffffffffffffffffffffffff1673ffffffffffffffffffffffffffffffffffffffff163373ffffffffffffffffffffffffffffffffffffffff1614610641576040517f08c379a00000000000000000000000000000000000000000000000000000000081526004016106389061120c565b60405180910390fd5b80600560006101000a81548173ffffffffffffffffffffffffffffffffffffffff021916908373ffffffffffffffffffffffffffffffffffffffff16021790555050565b600260009054906101000a900473ffffffffffffffffffffffffffffffffffffffff1681565b6004546003546106bb9190610f36565b42116106fc576040517f08c379a00000000000000000000000000000000000000000000000000000000081526004016106f390610fc7565b60405180910390fd5b600260009054906101000a900473ffffffffffffffffffffffffffffffffffffffff1673ffffffffffffffffffffffffffffffffffffffff163373ffffffffffffffffffffffffffffffffffffffff161461078c576040517f08c379a00000000000000000000000000000000000000000000000000000000081526004016107839061120c565b60405180910390fd5b683635c9adc5dea0000061079f47610c99565b10156107e0576040517f08c379a00000000000000000000000000000000000000000000000000000000081526004016107d790611278565b60405180910390fd5b60004790503373ffffffffffffffffffffffffffffffffffffffff1681604051610809906110f0565b60006040518083038185875af1925050503d8060008114610846576040519150601f19603f3d011682016040523d82523d6000602084013e61084b565b606091505b5050600260148291906101000a81548160ff02191690831515021790555050600260149054906101000a900460ff166108b9576040517f08c379a00000000000000000000000000000000000000000000000000000000081526004016108b090611151565b60405180910390fd5b6001600560146101000a81548160ff0219169083151502179055507f2413e9342f4545ed6b87ad890930d6affc4c1914b742a3fad66c49d6d507c73b816040516109039190610d18565b60405180910390a150565b60008054906101000a900473ffffffffffffffffffffffffffffffffffffffff1681565b60016020528060005260406000206000915090505481565b68056bc75e2d6310000061095d34610c99565b101561099e576040517f08c379a0000000000000000000000000000000000000000000000000000000008152600401610995906112e4565b60405180910390fd5b6004546003546109ae9190610f36565b42106109ef576040517f08c379a00000000000000000000000000000000000000000000000000000000081526004016109e690611350565b60405180910390fd5b34600160003373ffffffffffffffffffffffffffffffffffffffff1673ffffffffffffffffffffffffffffffffffffffff16815260200190815260200160002081905550565b60008060008054906101000a900473ffffffffffffffffffffffffffffffffffffffff1673ffffffffffffffffffffffffffffffffffffffff1663feaf968c6040518163ffffffff1660e01b815260040160a060405180830381865afa158015610aa3573d6000803e3d6000fd5b505050506040513d601f19601f82011682018060405250810190610ac791906113f3565b5050509150508091505090565b60035481565b600560009054906101000a900473ffffffffffffffffffffffffffffffffffffffff1673ffffffffffffffffffffffffffffffffffffffff163373ffffffffffffffffffffffffffffffffffffffff1614610b6a576040517f08c379a0000000000000000000000000000000000000000000000000000000008152600401610b61906114e0565b60405180910390fd5b80600160008473ffffffffffffffffffffffffffffffffffffffff1673ffffffffffffffffffffffffffffffffffffffff168152602001908152602001600020819055505050565b600560149054906101000a900460ff1681565b600260009054906101000a900473ffffffffffffffffffffffffffffffffffffffff1673ffffffffffffffffffffffffffffffffffffffff163373ffffffffffffffffffffffffffffffffffffffff1614610c55576040517f08c379a0000000000000000000000000000000000000000000000000000000008152600401610c4c9061120c565b60405180910390fd5b80600260006101000a81548173ffffffffffffffffffffffffffffffffffffffff021916908373ffffffffffffffffffffffffffffffffffffffff16021790555050565b600080610ca4610a35565b90506305f5e1008184610cb79190611500565b610cc19190611571565b915050919050565b60008115159050919050565b610cde81610cc9565b82525050565b6000602082019050610cf96000830184610cd5565b92915050565b6000819050919050565b610d1281610cff565b82525050565b6000602082019050610d2d6000830184610d09565b92915050565b600080fd5b600073ffffffffffffffffffffffffffffffffffffffff82169050919050565b6000610d6382610d38565b9050919050565b610d7381610d58565b8114610d7e57600080fd5b50565b600081359050610d9081610d6a565b92915050565b600060208284031215610dac57610dab610d33565b5b6000610dba84828501610d81565b91505092915050565b610dcc81610d58565b82525050565b6000602082019050610de76000830184610dc3565b92915050565b6000819050919050565b6000610e12610e0d610e0884610d38565b610ded565b610d38565b9050919050565b6000610e2482610df7565b9050919050565b6000610e3682610e19565b9050919050565b610e4681610e2b565b82525050565b6000602082019050610e616000830184610e3d565b92915050565b6000819050919050565b610e7a81610e67565b82525050565b6000602082019050610e956000830184610e71565b92915050565b610ea481610cff565b8114610eaf57600080fd5b50565b600081359050610ec181610e9b565b92915050565b60008060408385031215610ede57610edd610d33565b5b6000610eec85828601610d81565b9250506020610efd85828601610eb2565b9150509250929050565b7f4e487b7100000000000000000000000000000000000000000000000000000000600052601160045260246000fd5b6000610f4182610cff565b9150610f4c83610cff565b9250828201905080821115610f6457610f63610f07565b5b92915050565b600082825260208201905092915050565b7f77696e646f77206973206e6f7420636c6f736564000000000000000000000000600082015250565b6000610fb1601483610f6a565b9150610fbc82610f7b565b602082019050919050565b60006020820190508181036000830152610fe081610fa4565b9050919050565b7f5461726765742069732072656163686564000000000000000000000000000000600082015250565b600061101d601183610f6a565b915061102882610fe7565b602082019050919050565b6000602082019050818103600083015261104c81611010565b9050919050565b7f5468657265206973206e6f2066756e6420666f7220796f750000000000000000600082015250565b6000611089601883610f6a565b915061109482611053565b602082019050919050565b600060208201905081810360008301526110b88161107c565b9050919050565b600081905092915050565b50565b60006110da6000836110bf565b91506110e5826110ca565b600082019050919050565b60006110fb826110cd565b9150819050919050565b7f7472616e73666572206661696c65640000000000000000000000000000000000600082015250565b600061113b600f83610f6a565b915061114682611105565b602082019050919050565b6000602082019050818103600083015261116a8161112e565b9050919050565b60006040820190506111866000830185610dc3565b6111936020830184610d09565b9392505050565b7f746869732066756e6374696f6e2063616e206f6e6c792062652063616c6c656460008201527f206279206f776e65720000000000000000000000000000000000000000000000602082015250565b60006111f6602983610f6a565b91506112018261119a565b604082019050919050565b60006020820190508181036000830152611225816111e9565b9050919050565b7f546172676574206973206e6f7420726561636865640000000000000000000000600082015250565b6000611262601583610f6a565b915061126d8261122c565b602082019050919050565b6000602082019050818103600083015261129181611255565b9050919050565b7f53656e64206d6f72652045544800000000000000000000000000000000000000600082015250565b60006112ce600d83610f6a565b91506112d982611298565b602082019050919050565b600060208201905081810360008301526112fd816112c1565b9050919050565b7f77696e646f7720697320636c6f73656400000000000000000000000000000000600082015250565b600061133a601083610f6a565b915061134582611304565b602082019050919050565b600060208201905081810360008301526113698161132d565b9050919050565b600069ffffffffffffffffffff82169050919050565b61138f81611370565b811461139a57600080fd5b50565b6000815190506113ac81611386565b92915050565b6113bb81610e67565b81146113c657600080fd5b50565b6000815190506113d8816113b2565b92915050565b6000815190506113ed81610e9b565b92915050565b600080600080600060a0868803121561140f5761140e610d33565b5b600061141d8882890161139d565b955050602061142e888289016113c9565b945050604061143f888289016113de565b9350506060611450888289016113de565b92505060806114618882890161139d565b9150509295509295909350565b7f796f7520646f206e6f742068617665207065726d697373696f6e20746f20636160008201527f6c6c20746869732066756e6374696f6e00000000000000000000000000000000602082015250565b60006114ca603083610f6a565b91506114d58261146e565b604082019050919050565b600060208201905081810360008301526114f9816114bd565b9050919050565b600061150b82610cff565b915061151683610cff565b925082820261152481610cff565b9150828204841483151761153b5761153a610f07565b5b5092915050565b7f4e487b7100000000000000000000000000000000000000000000000000000000600052601260045260246000fd5b600061157c82610cff565b915061158783610cff565b92508261159757611596611542565b5b82820490509291505056fea26469706673582212209aadc89751d9ce4cc8b8d1346e1e7672680a9d7dbb61a155ca1857a649c7aeb064736f6c634300081c0033",
  "devdoc": {
    "kind": "dev",
    "methods": {},
    "version": 1
  },
  "userdoc": {
    "kind": "user",
    "methods": {
      "getChainlinkDataFeedLatestAnswer()": {
        "notice": "Returns the latest answer."
      }
    },
    "version": 1
  },
  "storageLayout": {
    "storage": [
      {
        "astId": 317,
        "contract": "contracts/FundMe.sol:FundMe",
        "label": "dataFeed",
        "offset": 0,
        "slot": "0",
        "type": "t_contract(AggregatorV3Interface)104"
      },
      {
        "astId": 321,
        "contract": "contracts/FundMe.sol:FundMe",
        "label": "fundersToAmount",
        "offset": 0,
        "slot": "1",
        "type": "t_mapping(t_address,t_uint256)"
      },
      {
        "astId": 337,
        "contract": "contracts/FundMe.sol:FundMe",
        "label": "owner",
        "offset": 0,
        "slot": "2",
        "type": "t_address"
      },
      {
        "astId": 339,
        "contract": "contracts/FundMe.sol:FundMe",
        "label": "success",
        "offset": 20,
        "slot": "2",
        "type": "t_bool"
      },
      {
        "astId": 341,
        "contract": "contracts/FundMe.sol:FundMe",
        "label": "deploymentTimestamp",
        "offset": 0,
        "slot": "3",
        "type": "t_uint256"
      },
      {
        "astId": 343,
        "contract": "contracts/FundMe.sol:FundMe",
        "label": "lockTime",
        "offset": 0,
        "slot": "4",
        "type": "t_uint256"
      },
      {
        "astId": 345,
        "contract": "contracts/FundMe.sol:FundMe",
        "label": "erc20Addr",
        "offset": 0,
        "slot": "5",
        "type": "t_address"
      },
      {
        "astId": 348,
        "contract": "contracts/FundMe.sol:FundMe",
        "label": "getFundSuccess",
        "offset": 20,
        "slot": "5",
        "type": "t_bool"
      }
    ],
    "types": {
      "t_address": {
        "encoding": "inplace",
        "label": "address",
        "numberOfBytes": "20"
      },
      "t_bool": {
        "encoding": "inplace",
        "label": "bool",
        "numberOfBytes": "1"
      },
      "t_contract(AggregatorV3Interface)104": {
        "encoding": "inplace",
        "label": "contract AggregatorV3Interface",
        "numberOfBytes": "20"
      },
      "t_mapping(t_address,t_uint256)": {
        "encoding": "mapping",
        "key": "t_address",
        "label": "mapping(address => uint256)",
        "numberOfBytes": "32",
        "value": "t_uint256"
      },
      "t_uint256": {
        "encoding": "inplace",
        "label": "uint256",
        "numberOfBytes": "32"
      }
    }
  }
}